:020000040800F2
:100000000050002019250008292300082F2300088C
:10001000352300083B2300084123000800000000AE
:10002000000000000000000000000000472300085E
:1000300053230008000000005F2300086B23000822
:100040006125000861250008612500086125000878
:100050006125000861250008612500086125000868
:100060006125000861250008612500086125000858
:100070006125000861250008612500086125000848
:100080006125000861250008612500086125000838
:100090006125000861250008612500086125000828
:1000A0006125000861250008612500086125000818
:1000B0006125000861250008612500086125000808
:1000C00061250008612500086125000861250008F8
:1000D00061250008792300086125000861250008D2
:1000E0006125000861250008612500080000000066
:1000F0000000000000000000000000000000000000
:0C01000000000000000000005FF808F1A3
:1001100010B5054C237833B9044B13B10448AFF341
:1001200000800123237010BDE401002000000000C6
:10013000E88F000808B5034B1BB103490348AFF330
:10014000008008BD00000000E8010020E88F0008E2
:10015000034613F8012B002AFBD1181A0138704707
:1001600081F0004102E000BF83F0004330B54FEA68
:1001700041044FEA430594EA050F08BF90EA020FD5
:100180001FBF54EA000C55EA020C7FEA645C7FEA68
:10019000655C00F0E2804FEA5454D4EB5555B8BF8B
:1001A0006D420CDD2C4480EA020281EA030382EAFC
:1001B000000083EA010180EA020281EA0303362D8E
:1001C00088BF30BD11F0004F4FEA01314FF4801C61
:1001D0004CEA113102D0404261EB410113F0004F73
:1001E0004FEA03334CEA133302D0524263EB43032A
:1001F00094EA050F00F0A780A4F10104D5F1200EC8
:100200000DDB02FA0EFC22FA05F2801841F1000122
:1002100003FA0EF2801843FA05F359410EE0A5F1F6
:1002200020050EF1200E012A03FA0EFC28BF4CF027
:10023000020C43FA05F3C01851EBE37101F00045DD
:1002400007D54FF0000EDCF1000C7EEB00006EEBEA
:100250000101B1F5801F1BD3B1F5001F0CD3490874
:100260005FEA30004FEA3C0C04F101044FEA4452CB
:1002700012F5800F80F09A80BCF1004F08BF5FEA52
:10028000500C50F1000041EB045141EA050130BD32
:100290005FEA4C0C404141EB0101013C28BFB1F544
:1002A000801FE9D291F0000F04BF01460020B1FA8F
:1002B00081F308BF2033A3F10B03B3F120020CDA62
:1002C0000C3208DD02F1140CC2F10C0201FA0CF040
:1002D00021FA02F10CE002F11402D8BFC2F1200CA5
:1002E00001FA02F120FA0CFCDCBF41EA0C0190405B
:1002F000E41AA2BF01EB0451294330BD6FEA0404A4
:100300001F3C1CDA0C340EDC04F11404C4F120028E
:1003100020FA04F001FA02F340EA030021FA04F3A0
:1003200045EA030130BDC4F10C04C4F1200220FAF7
:1003300002F001FA04F340EA0300294630BD21FA35
:1003400004F0294630BD94F0000F83F4801306BFFB
:1003500081F480110134013D4EE77FEA645C18BFEF
:100360007FEA655C29D094EA050F08BF90EA020F86
:1003700005D054EA000C04BF1946104630BD91EA7E
:10038000030F1EBF0021002030BD5FEA545C05D181
:100390004000494128BF41F0004130BD14F58004C0
:1003A0003CBF01F5801130BD01F0004545F0FE4134
:1003B00041F470014FF0000030BD7FEA645C1ABF69
:1003C000194610467FEA655C1CBF0B46024650EAA0
:1003D000013406BF52EA033591EA030F41F40021CC
:1003E00030BD00BF90F0000F04BF0021704730B552
:1003F0004FF4806404F132044FF000054FF0000127
:1004000050E700BF90F0000F04BF0021704730B5E7
:100410004FF4806404F1320410F0004548BF4042BC
:100420004FF000013EE700BF42004FEAE2014FEA11
:1004300031014FEA02701FBF12F07F4393F07F4FEC
:1004400081F06051704732F07F4208BF704793F0EF
:100450007F4F04BF41F40021704730B54FF4607402
:1004600001F0004521F000411CE700BF50EA010205
:1004700008BF704730B54FF000050AE050EA0102AE
:1004800008BF704730B511F0004502D5404261EB1E
:1004900041014FF4806404F132045FEA915C3FF45F
:1004A000D8AE4FF003025FEADC0C18BF03325FEAFC
:1004B000DC0C18BF033202EBDC02C2F1200300FAAD
:1004C00003FC20FA02F001FA03FE40EA0E0021FAD2
:1004D00002F11444BDE600BF70B54FF0FF0C4CF4C0
:1004E000E06C1CEA11541DBF1CEA135594EA0C0F72
:1004F00095EA0C0F00F0DEF82C4481EA030621EAAD
:100500004C5123EA4C5350EA013518BF52EA0335E7
:1005100041F4801143F4801338D0A0FB02CE4FF099
:100520000005E1FB02E506F00042E0FB03E54FF0C9
:100530000006E1FB03569CF0000F18BF4EF0010EC1
:10054000A4F1FF04B6F5007F64F5407404D25FEABD
:100550004E0E6D4146EB060642EAC62141EA555170
:100560004FEAC52040EA5E504FEACE2EB4F1FD0CB2
:1005700088BFBCF5E06F1ED8BEF1004F08BF5FEA30
:10058000500E50F1000041EB045170BD06F00046E2
:1005900046EA010140EA020081EA0301B4EB5C048F
:1005A000C2BFD4EB0C0541EA045170BD41F4801187
:1005B0004FF0000E013C00F3AB8014F1360FDEBFAC
:1005C000002001F0004170BDC4F10004203C35DA88
:1005D0000C341BDC04F11404C4F1200500FA05F30B
:1005E00020FA04F001FA05F240EA020001F00042AC
:1005F00021F0004110EBD37021FA04F642EB060122
:100600005EEA430E08BF20EAD37070BDC4F10C044B
:10061000C4F1200500FA04F320FA05F001FA04F20F
:1006200040EA020001F0004110EBD37041F10001FB
:100630005EEA430E08BF20EAD37070BDC4F1200506
:1006400000FA05F24EEA020E20FA04F301FA05F26E
:1006500043EA020321FA04F001F0004121FA04F216
:1006600020EA020000EBD3705EEA430E08BF20EAE6
:10067000D37070BD94F0000F0FD101F00046400020
:1006800041EB010111F4801F08BF013CF7D041EAA2
:10069000060195F0000F18BF704703F000465200A6
:1006A00043EB030313F4801F08BF013DF7D043EA77
:1006B0000603704794EA0C0F0CEA135518BF95EA2D
:1006C0000C0F0CD050EA410618BF52EA4306D1D1B4
:1006D00081EA030101F000414FF0000070BD50EAD3
:1006E000410606BF1046194652EA430619D094EA5D
:1006F0000C0F02D150EA013613D195EA0C0F05D147
:1007000052EA03361CBF104619460AD181EA03019A
:1007100001F0004141F0FE4141F470014FF0000052
:1007200070BD41F0FE4141F4780170BD70B54FF0ED
:10073000FF0C4CF4E06C1CEA11541DBF1CEA13556D
:1007400094EA0C0F95EA0C0F00F0A7F8A4EB05044F
:1007500081EA030E52EA03354FEA013100F0888046
:100760004FEA03334FF0805545EA131343EA12630F
:100770004FEA022245EA111545EA10654FEA0026C4
:100780000EF000419D4208BF964244F1FD0404F57D
:10079000407402D25B084FEA3202B61A65EB0305D9
:1007A0005B084FEA32024FF480104FF4002CB6EB96
:1007B000020E75EB030E22BFB61A754640EA0C0016
:1007C0005B084FEA3202B6EB020E75EB030E22BF56
:1007D000B61A754640EA5C005B084FEA3202B6EB97
:1007E000020E75EB030E22BFB61A754640EA9C0056
:1007F0005B084FEA3202B6EB020E75EB030E22BF26
:10080000B61A754640EADC0055EA060E18D04FEAE3
:10081000051545EA16754FEA06164FEAC30343EA83
:1008200052734FEAC2025FEA1C1CC0D111F4801F50
:100830000BD141EA00014FF000004FF0004CB6E749
:1008400011F4801F04BF01430020B4F1FD0C88BFE8
:10085000BCF5E06F3FF6AFAEB5EB030C04BFB6EBF3
:10086000020C5FEA500C50F1000041EB045170BDE6
:100870000EF0004E4EEA113114EB5C04C2BFD4EB13
:100880000C0541EA045170BD41F480114FF0000E97
:10089000013C90E645EA060E8DE60CEA135594EA13
:1008A0000C0F08BF95EA0C0F3FF43BAF94EA0C0F16
:1008B0000AD150EA01347FF434AF95EA0C0F7FF48B
:1008C00025AF104619462CE795EA0C0F06D152EADF
:1008D00003353FF4FDAE1046194622E750EA4106C3
:1008E00018BF52EA43067FF4C5AE50EA41047FF4D4
:1008F0000DAF52EA43057FF4EBAE12E74FF0FF3C39
:1009000006E000BF4FF0010C02E000BF4FF0010C09
:100910004DF804CD4FEA410C7FEA6C5C4FEA430C82
:1009200018BF7FEA6C5C1BD001B050EA410C0CBFD1
:1009300052EA430C91EA030F02BF90EA020F002033
:10094000704710F1000F91EA030F58BF994208BF9A
:1009500090422CBFD8176FEAE37040F00100704757
:100960004FEA410C7FEA6C5C02D150EA013C07D1AE
:100970004FEA430C7FEA6C5CD6D152EA033CD3D0F9
:100980005DF8040B704700BF8446104662468C46F3
:100990001946634600E000BF01B5FFF7B7FF002826
:1009A00048BF10F1000F01BD4DF808EDFFF7F4FF4F
:1009B0000CBF012000205DF808FB00BF4DF808EDDA
:1009C000FFF7EAFF34BF012000205DF808FB00BFFD
:1009D0004DF808EDFFF7E0FF94BF012000205DF81F
:1009E00008FB00BF4DF808EDFFF7CEFF94BF0120D4
:1009F00000205DF808FB00BF4DF808EDFFF7C4FFCD
:100A000034BF012000205DF808FB00BF4FEA410C15
:100A10007FEA6C5C02D150EA013C0AD14FEA430CF8
:100A20007FEA6C5C02D152EA033C02D14FF0000035
:100A300070474FF0010070474FEA410212F5001273
:100A400015D211D56FF47873B3EB625212D94FEA15
:100A5000C12343F0004343EA505311F0004F23FAFF
:100A600002F018BF404270474FF00000704750EA54
:100A7000013005D111F0004008BF6FF00040704711
:100A80004FF00000704700BF4FEA4102B2F1E0436F
:100A900024BFB3F5001CDCF1FE5C0DD901F0004C65
:100AA0004FEAC0024CEA5070B2F1004F40EB8300B5
:100AB00008BF20F00100704711F0804F21D113F1E1
:100AC0003872BCBF01F00040704741F480114FEA1A
:100AD0005252C2F11802C2F1200C10FA0CF320FAA3
:100AE00002F018BF40F001004FEAC1234FEAD323C0
:100AF00003FA0CFC40EA0C0023FA02F34FEA43032A
:100B0000CCE77FEA625307D150EA01331EBF4FF0B2
:100B1000FE4040F44000704701F0004040F0FE40CD
:100B200040F40000704700BF80F0004002E000BFCA
:100B300081F0004142001FBF5FEA410392EA030FC8
:100B40007FEA226C7FEA236C6AD04FEA1262D2EB12
:100B50001363C1BFD218414048404140B8BF5B4217
:100B6000192B88BF704710F0004F40F4000020F0B0
:100B70007F4018BF404211F0004F41F4000121F0C6
:100B80007F4118BF494292EA030F3FD0A2F1010210
:100B900041FA03FC10EB0C00C3F1200301FA03F14E
:100BA00000F0004302D5494260EB4000B0F5000F71
:100BB00013D3B0F1807F06D340084FEA310102F130
:100BC0000102FE2A51D2B1F1004F40EBC25008BFE2
:100BD00020F0010040EA03007047490040EB0000AC
:100BE000013A28BFB0F5000FEDD2B0FA80FCACF1AD
:100BF000080CB2EB0C0200FA0CF0AABF00EBC250DA
:100C000052421843BCBFD0401843704792F0000FC7
:100C100081F4000106BF80F400000132013BB5E71A
:100C20004FEA41037FEA226C18BF7FEA236C21D090
:100C300092EA030F04D092F0000F08BF08467047F5
:100C400090EA010F1CBF0020704712F07F4F04D1C3
:100C5000400028BF40F00040704712F100723CBFD6
:100C600000F50000704700F0004343F0FE4040F400
:100C7000000070477FEA226216BF08467FEA2363BE
:100C80000146420206BF5FEA412390EA010F40F4A9
:100C9000800070474FF0000304E000BF10F00043F5
:100CA00048BF40425FEA000C08BF704743F09643DC
:100CB00001464FF000001CE050EA010208BF7047F7
:100CC0004FF000030AE000BF50EA010208BF70477E
:100CD00011F0004302D5404261EB41015FEA010C93
:100CE00002BF84460146002043F0B64308BFA3F18B
:100CF0008053A3F50003BCFA8CF2083AA3EBC2536D
:100D000010DB01FA02FC634400FA02FCC2F120028B
:100D1000BCF1004F20FA02F243EB020008BF20F0C2
:100D20000100704702F1200201FA02FCC2F1200228
:100D300050EA4C0021FA02F243EB020008BF20EA1D
:100D4000DC7070474FF0FF0C1CEAD0521EBF1CEA4B
:100D5000D15392EA0C0F93EA0C0F6FD01A4480EA39
:100D6000010C400218BF5FEA41211ED04FF0006322
:100D700043EA501043EA5111A0FB01310CF000404E
:100D8000B1F5000F3EBF490041EAD3715B0040EA74
:100D9000010062F17F02FD2A1DD8B3F1004F40EB44
:100DA000C25008BF20F00100704790F0000F0CF017
:100DB000004C08BF49024CEA502040EA51207F3ADB
:100DC000C2BFD2F1FF0340EAC250704740F40000B6
:100DD0004FF00003013A5DDC12F1190FDCBF00F0A7
:100DE00000407047C2F10002410021FA02F1C2F155
:100DF000200200FA02FC5FEA310040F1000053EAF1
:100E00004C0308BF20EADC70704792F0000F00F03E
:100E1000004C02BF400010F4000F013AF9D040EA44
:100E20000C0093F0000F01F0004C02BF490011F4D8
:100E3000000F013BF9D041EA0C018FE70CEAD153D6
:100E400092EA0C0F18BF93EA0C0F0AD030F0004C56
:100E500018BF31F0004CD8D180EA010000F000400A
:100E6000704790F0000F17BF90F0004F084691F0C8
:100E7000000F91F0004F14D092EA0C0F01D1420202
:100E80000FD193EA0C0F03D14B0218BF084608D1CB
:100E900080EA010000F0004040F0FE4040F4000015
:100EA000704740F0FE4040F4400070474FF0FF0CA8
:100EB0001CEAD0521EBF1CEAD15392EA0C0F93EAEF
:100EC0000C0F69D0A2EB030280EA010C49024FEA41
:100ED000402037D04FF0805343EA111143EA1013FA
:100EE0000CF000408B4238BF5B0042F17D024FF4B2
:100EF000000C8B4224BF5B1A40EA0C00B3EB510F8D
:100F000024BFA3EB510340EA5C00B3EB910F24BF75
:100F1000A3EB910340EA9C00B3EBD10F24BFA3EBFA
:100F2000D10340EADC001B0118BF5FEA1C1CE0D1C2
:100F3000FD2A3FF650AF8B4240EBC25008BF20F075
:100F4000010070470CF0004C4CEA50207F32C2BFC9
:100F5000D2F1FF0340EAC250704740F400004FF066
:100F60000003013A37E792F0000F00F0004C02BF97
:100F7000400010F4000F013AF9D040EA0C0093F061
:100F8000000F01F0004C02BF490011F4000F013BBB
:100F9000F9D041EA0C0195E70CEAD15392EA0C0F23
:100FA00008D142027FF47DAF93EA0C0F7FF470AF5B
:100FB000084676E793EA0C0F04D14B023FF44CAF9E
:100FC00008466EE730F0004C18BF31F0004CCAD133
:100FD00030F000427FF45CAF31F000437FF43CAF6F
:100FE0005FE700BF4FEA4002B2F1FE4F0FD34FF070
:100FF0009E03B3EB12620DD94FEA002343F0004386
:1010000010F0004F23FA02F018BF404270474FF033
:101010000000704712F1610F01D1420205D110F0BA
:10102000004008BF6FF0004070474FF0000070476D
:1010300080B483B000AF0346FB71FB790C4AA2FB7E
:101040000323DB08DBB21B01D8B2FA79084BA3FB00
:101050000213D9080B469B000B445B00D31ADBB28A
:101060000344DBB218460C37BD4680BC704700BF56
:10107000CDCCCCCC80B483B000AF0346FB71FB7900
:101080001B09DBB21A46920013445B00DAB2FB790B
:1010900003F00F03DBB21344DBB218460C37BD4636
:1010A00080BC704790B589B004AF0446084611462D
:1010B0001A462346FB710346BB710B467B711346F0
:1010C0003B71FB791846FFF7B3FF03463B72BB79D0
:1010D0001846FFF7ADFF03467B727B791846FFF792
:1010E000A7FF0346BB723B791846FFF7A1FF0346F3
:1010F000FB7297F820301846FFF79AFF03463B73C0
:1011000097F824301846FFF793FF03467B7397F850
:1011100028301846FFF78CFF0346BB734FF47A73F1
:1011200002930723019307F1080300930123002290
:10113000D021034802F0A6FA00BF1437BD4690BD87
:10114000EC02002080B586B004AF4FF47A730293AE
:10115000072301933B46009301230022D0210F482F
:1011600002F08AFB3B791846FFF784FF03461A46D4
:101170000B4B1A707B791846FFF77CFF03461A4623
:10118000084B1A70BB791846FFF774FF03461A46DE
:10119000054B1A7000BF0837BD4680BDEC02002029
:1011A000130200201402002015020020B0B586B002
:1011B00004AF4FF47A730293022301933B1D009313
:1011C00001231122D021124802F056FB3B79184628
:1011D000FFF718F904460D467B799B09DBB21846E8
:1011E000FFF710F94FF000020A4BFFF79FFA024693
:1011F0000B4620462946FEF7B9FF02460B4610462D
:101200001946FFF741FC034618460837BD46B0BDF6
:10121000EC0200200000104080B586B004AF00232F
:10122000FB710023BB716423029301230193FB1D17
:10123000009301230F22D021134802F01DFBFB79FC
:1012400003F00403002B1BD16423029301230193B9
:10125000BB1D009301230E22D0210B4802F00CFB92
:10126000BB7943F02003DBB21A46642302930123C7
:101270000193009201230E22D021034802F002FACA
:1012800000BF0837BD4680BDEC02002080B588B0A5
:1012900002AF03463960FB803B467B61FB881B0A3B
:1012A0009BB2DBB23B73FB88DBB27B737B691B7841
:1012B000BB737B695B78FB737B699B783B747B6951
:1012C000DB787B7407F10C024FF0FF3300930623A9
:1012D000AE21054801F06CFE0A2001F0A5F900BF1F
:1012E0001837BD4680BD00BFEC02002080B588B035
:1012F00002AF0346FB80FB881B0A9BB2DBB23B7547
:10130000FB88DBB27B7507F114024FF0FF330093CB
:101310000223AE21094801F04BFE07F110024FF005
:10132000FF3300930423AE21044801F03FFF3B69E3
:10133000FB60FB6818461837BD4680BDEC020020F4
:1013400080B582B002AF124B1A78124B1A70124B52
:101350001A78124B1A70124B1A78124B1A700C4BE7
:101360001B781A460C4B1B7819460D4B1B780093C3
:101370000B460D490D4805F0BDFB0021012000F092
:10138000C1F80A4800F0A2F800BFBD4680BD00BF0A
:10139000130200201802002014020020190200206D
:1013A000150200201A02002000900008040200200C
:1013B00080B586B002AF0346FB71FB7923F00F03C3
:1013C000FB73FB791B01BB73FB7B43F00C03DBB2AC
:1013D0003B72FB7B43F00803DBB27B72BB7B43F0C9
:1013E0000C03DBB2BB72BB7B43F00803DBB2FB72C6
:1013F00007F108026423009304234E21034801F0FF
:10140000D7FD00BF1037BD4680BD00BF9802002049
:1014100080B586B002AF0346FB71FB7923F00F0362
:10142000FB73FB791B01BB73FB7B43F00D03DBB24A
:101430003B72FB7B43F00903DBB27B72BB7B43F067
:101440000D03DBB2BB72BB7B43F00903DBB2FB7263
:1014500007F108026423009304234E21034801F09E
:10146000A7FD00BF1037BD4680BD00BF9802002019
:1014700080B500AF3320FFF79BFF3220FFF798FFC6
:10148000322001F0D1F82820FFF792FF322001F03E
:10149000CBF80120FFF78CFF322001F0C5F80620C1
:1014A000FFF786FF322001F0BFF80C20FFF780FF26
:1014B000322001F0B9F80220FFF77AFF322001F064
:1014C000B3F88020FFF774FF00BF80BD80B582B005
:1014D00000AF786006E07B685A1C7A601B7818467B
:1014E000FFF796FF7B681B78002BF4D100BF00BF8D
:1014F0000837BD4680BD80B500AF0120FFF758FF1B
:1015000000BF80BD80B584B000AF786039607B6873
:10151000012B08D17B68DAB23B68DBB21344DBB243
:101520007F33FB7322E07B68022B09D13B68DBB27F
:101530004033DBB25BB263F07F035BB2FB7315E059
:101540007B68032B09D13B68DBB21433DBB25BB29F
:1015500063F07F035BB2FB7308E03B68DBB254339C
:10156000DBB25BB263F07F035BB2FB73FB7B1846BD
:10157000FFF71EFF00BF1037BD4680BD80B483B0AB
:1015800000AF78607B681B6800225A6200BF0C378E
:10159000BD4680BC704700002DE9B04388B004AF61
:1015A00000F0E0FF00F030FC00F044FD00F066FCCD
:1015B00000F0C0FC00F014FD00F08EFCFFF758FFB7
:1015C0001020FFF793FE03461846FFF70BFD034676
:1015D000644A1360634B1B68012B18D118230293D4
:1015E00006230193022300930123152219210020D1
:1015F000FFF758FD5B4B00221A605A4B1B681846D8
:10160000FFF74CFB034619461020FFF73FFE01236E
:10161000FB6015E0FB6807339BB29B009AB2524B0C
:101620001A80514B1C88FB685B001846FFF736FB9D
:10163000034619462046FFF729FEFB680133FB608D
:10164000FB680C2BE6DD00210220FFF75BFF47481B
:10165000FFF73CFF00210320FFF754FF4448FFF74A
:1016600035FF00210420FFF74DFF4248FFF72EFF12
:101670000C210120FFF746FF3F48FFF727FFFFF748
:1016800061FDFFF75DFE01223C493D4803F0FBFF91
:101690003C4803F0BDFC00F0BDFF03463A4A13602E
:1016A000394B1B68394A1360394B1B68002B40F0DB
:1016B000E1810421374801F01FFB03461A46364BEF
:1016C0001A60354B1B68002B0ED100BF324B1B68D4
:1016D000002BFBD14FF000010120FFF7D7FD4FF0A9
:1016E00000010520FFF7D2FD02212A4801F004FB8A
:1016F00003461A46294B1A60284B1B68002B0AD157
:1017000000BF264B1B68002BFBD1214B01221A6026
:10171000C82000F089FFFFF715FD214B1A78214BF7
:101720001B789A420BD1204B1A78204B1B789A4297
:1017300005D11F4B1A781F4B1B789A4254D0184B77
:101740001A78184B1B789A4203D01B4B4FF00002BB
:101750001A60174B1A78174B1B789A4242D0012314
:10176000BB603CE0840200201602002014900008B8
:101770001C900008249000082C90000834020020DF
:101780008803002040030020700200207402002023
:101790009402002000080140900200208C020020EA
:1017A0001802002013020020190200201402002059
:1017B0001A0200201502002078020020BB680733BF
:1017C0009BB29B009AB2934B1A80924B1B884FF0AE
:1017D00000011846FFF75AFDBB680133BB60BB68C8
:1017E0000C2BEBDDFFF7ACFDFFF716FDFFF7DEFC82
:1017F0000346894A1360884B1B681846FEF714FE9F
:1018000002460B468549864805F074F90F210120F0
:10181000FFF778FE8248FFF759FE0120FFF766FDCB
:101820000346804A13600520FFF760FD03467E4AA9
:10183000136000F0EFFE03467C4A13607C4B1B688C
:101840005B6A1A467B4B1A607B4B1B6803F57A7206
:10185000764B1B689A423FF627AF00F0DBFE02464C
:10186000754B1B68D31A1846FEF7BCFD02460B46A3
:101870004FF000007149FEF759FF02460B4614462F
:101880001D466C4B1B681846FEF7BCFD02460B4616
:1018900020462946FEF720FE02460B4614461D460A
:1018A000674B1B681846FEF7BFFD02460B462046F5
:1018B0002946FEF73BFF02460B4610461946FFF746
:1018C000E3F803465F4A1360584B1B685A4A13609B
:1018D0005C4B1B685C491846FFF7E8FA03461A465A
:1018E0005A4B1A604F4B1B68584A126811461846EB
:1018F000FFF720F903461A464A4B1A60494B1B680A
:10190000494A13604F4B1B681846FEF78DFD804611
:101910008946444B1B681846FEF786FD04460D4673
:10192000414B1B681846FEF77FFD02460B46CDE98A
:101930000223CDE9004542464B464549454805F05E
:10194000D9F8384B1B6819460120FFF79FFC364B2E
:101950001B6819460520FFF799FC3A4B1B6818468F
:10196000FEF762FD02460B462C493B4805F0C2F8E3
:101970000120FFF7BBFC03461846FEF755FD024663
:101980000B462649354805F0B5F80520FFF7AEFCB3
:1019900003461846FEF748FD02460B461F493048ED
:1019A00005F0A8F808210220FFF7ACFD2D48FFF74D
:1019B0008DFD08210220FFF7A5FD2748FFF786FDD2
:1019C0002948FFF783FD08210320FFF79BFD2748E7
:1019D000FFF77CFD08210320FFF794FD1F48FFF768
:1019E00075FD2348FFF772FD07210420FFF78AFDEC
:1019F0001C48FFF76BFD08210420FFF783FD184802
:101A0000FFF764FD1A48FFF761FD0948FFF7B6FDCF
:101A10004AE600BF160200200002002030900008B5
:101A200004020020780200207C02002070020020C6
:101A300040030020640200207402002000408F4018
:101A4000000000206C0200200000704268020020AC
:101A500038900008440200201C02002024020020CC
:101A60002C02002054900008609000086890000844
:101A700074900008814B1B68012B7FF415AE804BDE
:101A80001B68002B44D1FFF736FD0A2000F0CCFD87
:101A900000210120FFF736FD7A48FFF717FD0021EE
:101AA0000220FFF72FFD7848FFF710FD774B1B68EA
:101AB00007339BB29B009AB2754B1A80744B1B88FC
:101AC0001846FFF713FC7860704B1B681A46714983
:101AD000714805F00FF87868FEF7A6FC02460B4641
:101AE0006E496F4805F006F807210120FFF70AFD4F
:101AF0006948FFF7EBFC0A210220FFF703FD684865
:101B0000FFF7E4FC5E4B01221A60642000F08CFDBC
:101B10000121644801F0F0F803461A46624B1A604E
:101B20000421604801F0E8F803461A465F4B1A604A
:101B300002215C4801F0E0F803461A465C4B1A604B
:101B4000594B1B68002B0CD1504B1B680C2B03D13D
:101B50004E4B01221A6004E04C4B1B6801334B4A88
:101B60001360524B1B68002B0CD1484B1B68012B98
:101B700003D1464B0C221A6004E0444B1B68013B26
:101B8000424A1360414B1B6807339BB29B009AB2D9
:101B90003F4B1A803E4B1B881846FFF7A7FB386067
:101BA0003868FEF741FC02460B463C493C4804F0CD
:101BB000A1FF364B1B681A463649374804F09AFF96
:101BC00007210120FFF79EFC3A48FFF77FFC0A211E
:101BD0000220FFF797FC3748FFF778FC0721012028
:101BE000FFF790FC2C48FFF771FC0A210220FFF759
:101BF00089FC2B48FFF76AFC2F48FFF767FC2C4B4A
:101C00001B68002B36D11D4B00221A601C4B002292
:101C10001A601E4B01221A60FFF76DFC0A2000F0CB
:101C200003FD00210220FFF76DFC2448FFF74EFC66
:101C300000210320FFF766FC2148FFF747FC002145
:101C40000420FFF75FFC1F48FFF740FC0C21012038
:101C5000FFF758FC1C48FFF739FCFFF773FAFFF752
:101C60006FFB00F0D7FC0346184A1360174B1B6844
:101C7000174A1360782000F0D7FC15E59402002085
:101C80008002002078900008809000080400002066
:101C9000160200208C9000081C02002030900008E2
:101CA0002402002000080140880200209002002049
:101CB0008C02002090900008749000081490000896
:101CC0001C900008249000082C900008700200204E
:101CD0007402002080B588B000AF7860454B1B7857
:101CE000522B06D10A231E224349444803F048FCE4
:101CF00076E0404B1B78412B18D1414B44221A808F
:101D00003F4B1B881846FFF7F1FAF860F868FEF7BA
:101D10008BFB02460B463B49374804F0EBFE0A2397
:101D20001E223549354803F02BFC59E0314B1B7816
:101D3000422B18D1324B48221A80314B1B8818464F
:101D4000FFF7D4FA38613869FEF76EFB02460B469E
:101D50002C49294804F0CEFE0A231E222649274892
:101D600003F00EFC3CE0234B1B78432B18D1244B93
:101D70004C221A80224B1B881846FFF7B7FA78616D
:101D80007869FEF751FB02460B461E491A4804F0DB
:101D9000B1FE0A231E221849184803F0F1FB1FE088
:101DA000144B1B78303BFB61FB6907339BB29B00F4
:101DB0009AB2134B1A80124B1B881846FFF796FAFB
:101DC000B861B869FEF730FB02460B460D490A4878
:101DD00004F090FE0A231E220749084803F0D0FBB6
:101DE00001220449054803F04EFC00BF2037BD46E0
:101DF00080BD00BF34020020440200208803002080
:101E0000160200209C90000880B590B000AF07F14A
:101E1000180328220021184604F004FA3B1D002272
:101E20001A605A609A60DA601A610123BB614FF44C
:101E30008033FB6100237B6307F11803184602F02F
:101E400087FC0346002B01D000F036F90F237B609E
:101E50000123BB600023FB6000233B6100237B6107
:101E60003B1D0021184602F0F5FE0346002B01D071
:101E700000F022F900BF4037BD4680BD80B500AFFD
:101E8000124B134A1A60114B124A5A600F4B002230
:101E90009A600E4B0022DA600C4B4FF480421A61BC
:101EA0000A4B00225A61094B00229A61074B00221B
:101EB000DA61064B00221A62044800F035FF03463F
:101EC000002B01D000F0F8F800BF80BD9802002080
:101ED00000540040A086010080B500AF124B134AA9
:101EE0001A60114B124A5A600F4B00229A600E4B37
:101EF0000022DA600C4B4FF480421A610A4B002238
:101F00005A61094B00229A61074B0022DA61064BA5
:101F100000221A62044800F007FF0346002B01D09C
:101F200000F0CAF800BF80BDEC020020005800405D
:101F3000A086010080B586B000AF07F1080300223B
:101F40001A605A609A60DA603B4600221A605A6052
:101F5000214B224A1A60204B00225A601E4B00225D
:101F60009A601D4B4FF6FF72DA601B4B00221A611C
:101F7000194B00225A61184B00229A61164802F050
:101F8000F7FF0346002B01D000F096F84FF4005302
:101F9000BB600023FB6000233B6100237B6107F1F2
:101FA000080319460C4803F07DF80346002B01D0C6
:101FB00000F082F800233B6000237B603B4619461B
:101FC000054803F02FFA0346002B01D000F074F807
:101FD00000BF1837BD4680BD40030020002C0140E3
:101FE00080B500AF114B124A1A60104B4FF41642E5
:101FF0005A600E4B00229A600C4B0022DA600B4BA9
:1020000000221A61094B0C225A61084B00229A6186
:10201000064B0022DA61054803F062FA0346002B02
:1020200001D000F049F800BF80BD00BF8803002048
:102030000038014080B588B000AF07F110030022DE
:102040001A605A609A60DA60194B9B69184A43F02B
:1020500020039361164B9B6903F02003FB60FB6830
:10206000134B9B69124A43F004039361104B9B6925
:1020700003F00403BB60BB680D4B9B690C4A43F043
:10208000080393610A4B9B6903F008037B607B683C
:1020900007233B6100237B610123BB6107F1100330
:1020A0001946044800F0A4FC00BF2037BD4680BD9F
:1020B000001002400008014080B400AF72B600BFBB
:1020C000FEE7000080B485B000AF154B9B69144A51
:1020D00043F001039361124B9B6903F00103BB6062
:1020E000BB680F4BDB690E4A43F08053D3610C4B46
:1020F000DB6903F080537B607B680A4B5B68FB60A5
:10210000FB6823F0E063FB60FB6843F00073FB6057
:10211000044AFB68536000BF1437BD4680BC70475B
:10212000001002400000014080B58AB000AF786026
:1021300007F1180300221A605A609A60DA607B681F
:102140001B682B4A934224D12A4B9B69294A43F0AE
:1021500008039361274B9B6903F008037B617B694C
:10216000C023BB611223FB6103237B6207F11803C9
:102170001946214800F03CFC1E4BDB691D4A43F424
:102180000013D3611B4BDB6903F400133B613B6914
:1021900029E07B681B68194A934224D1154B9B693F
:1021A000144A43F008039361124B9B6903F0080340
:1021B000FB60FB684FF44063BB611223FB610323A8
:1021C0007B6207F1180319460B4800F011FC094B1C
:1021D000DB69084A43F48003D361064BDB6903F4EF
:1021E0008003BB60BB6800BF2837BD4680BD00BF11
:1021F0000054004000100240000C01400058004014
:1022000080B588B000AF786007F1100300221A6033
:102210005A609A60DA607B681B68164A934224D140
:10222000154B9B69144A43F400639361124B9B69FD
:1022300003F40063FB60FB680F4B9B690E4A43F09D
:10224000040393610C4B9B6903F00403BB60BB6800
:102250004FF480533B6100237B610023BB6107F196
:1022600010031946054800F0C3FB00BF2037BD46E8
:1022700080BD00BF002C014000100240000801405A
:1022800080B588B000AF786007F1100300221A60B3
:102290005A609A60DA607B681B68204A934239D1A1
:1022A0001F4B9B691E4A43F4804393611C4B9B69FF
:1022B00003F48043FB60FB68194B9B69184A43F0A9
:1022C00004039361164B9B6903F00403BB60BB6876
:1022D0004FF400733B6102237B610323FB6107F131
:1022E000100319460F4800F083FB4FF480633B61F5
:1022F00000237B610023BB6107F1100319460948E5
:1023000000F076FB00220021252000F088FA25202D
:1023100000F0A1FA00BF2037BD4680BD0038014063
:10232000001002400008014080B400AFFEE780B416
:1023300000AFFEE780B400AFFEE780B400AFFEE779
:1023400080B400AFFEE780B400AF00BFBD4680BCE4
:10235000704780B400AF00BFBD4680BC704780B4FA
:1023600000AF00BFBD4680BC704780B500AF00F035
:102370003FF900BF80BD000080B500AF024803F008
:10238000A7F900BF80BD00BF8803002080B400AF64
:1023900001231846BD4680BC704780B582B000AFAF
:1023A0007860396003F014FF034616221A604FF07C
:1023B000FF3318460837BD4680BD80B582B000AFF8
:1023C00078604FF0FF317868FFF7E7FFFEE780B5F0
:1023D00086B000AFF860B9607A6000237B610AE0E4
:1023E000AFF300800146BB685A1CBA60CAB21A70CB
:1023F0007B6901337B617A697B689A42F0DB7B6899
:1024000018461837BD4680BD80B586B000AFF8606D
:10241000B9607A6000237B6109E0BB685A1CBA602E
:102420001B781846AFF300807B6901337B617A69C2
:102430007B689A42F1DB7B6818461837BD4680BD41
:1024400080B483B000AF78604FF0FF3318460C378C
:10245000BD4680BC704780B483B000AF78603960FF
:102460003B684FF400525A60002318460C37BD46B3
:1024700080BC704780B483B000AF786001231846F9
:102480000C37BD4680BC704780B485B000AFF860A3
:10249000B9607A60002318461437BD4680BC704787
:1024A00080B586B000AF7860144A154BD31A7B61B3
:1024B0007B693B61134B1B68002B02D1114B124A05
:1024C0001A60104B1A687B6813443A699A4207D223
:1024D00003F07EFE03460C221A604FF0FF3309E042
:1024E000084B1B68FB60074B1A687B681344054A5E
:1024F0001360FB6818461837BD4680BD00500020A9
:1025000000040000D0030020E803002080B400AFE6
:1025100000BFBD4680BC7047FFF7F8FF0B480C4971
:102520000C4A002302E0D458C4500433C4188C422F
:10253000F9D3094A094C002301E013600432A24296
:10254000FBD303F04BFEFFF727F870470000002095
:10255000E4010020BC940008E4010020E80300200E
:10256000FEE7000080B500AF084B1B68074A43F048
:1025700010031360032000F047F90F2000F008F863
:10258000FFF7A0FD0023184680BD00BF00200240D9
:1025900080B582B000AF7860124B1A68124B1B787E
:1025A00019464FF47A73B3FBF1F3B2FBF3F3184619
:1025B00000F05FF90346002B01D001230EE07B6899
:1025C0000F2B0AD8002279684FF0FF3000F027F96E
:1025D000064A7B681360002300E001231846083791
:1025E000BD4680BD08000020100000200C00002027
:1025F00080B400AF054B1B781A46054B1B6813448B
:10260000034A136000BFBD4680BC70471000002025
:10261000D403002080B400AF024B1B681846BD46AF
:1026200080BC7047D403002080B584B000AF7860D0
:10263000FFF7F0FFB8607B68FB60FB68B3F1FF3F1A
:1026400005D00A4B1B781A46FB681344FB6000BF99
:10265000FFF7E0FF0246BB68D31AFA689A42F7D840
:1026600000BF00BF1037BD4680BD00BF1000002076
:1026700080B485B000AF78607B6803F00703FB602F
:102680000C4BDB68BB60BA684FF6FF031340BB60BE
:10269000FB681A02BB68134343F0BF6343F4003383
:1026A000BB60044ABB68D36000BF1437BD4680BC22
:1026B000704700BF00ED00E080B400AF044BDB6862
:1026C0001B0A03F007031846BD4680BC704700BFD5
:1026D00000ED00E080B483B000AF0346FB7197F9D2
:1026E0000730002B0BDBFB7903F01F02064997F93B
:1026F00007305B09012000FA02F241F8232000BFF5
:102700000C37BD4680BC704700E100E080B483B068
:1027100000AF03463960FB7197F90730002B0ADBE5
:102720003B68DAB20C4997F907301201D2B20B4478
:1027300083F800230AE03B68DAB20849FB7903F02A
:102740000F03043B1201D2B20B441A7600BF0C37C0
:10275000BD4680BC704700BF00E100E000ED00E036
:1027600080B489B000AFF860B9607A60FB6803F0AC
:102770000703FB61FB69C3F10703042B28BF042394
:10278000BB61FB690433062B02D9FB69033B00E004
:1027900000237B614FF0FF32BB6902FA03F3DA4397
:1027A000BB681A407B699A404FF0FF317B6901FAA0
:1027B00003F3D9437B680B40134318462437BD46C7
:1027C00080BC704780B582B000AF78607B68013B09
:1027D000B3F1807F01D301230FE00A4A7B68013BFC
:1027E00053600F214FF0FF30FFF790FF054B0022A1
:1027F0009A60044B07221A60002318460837BD462A
:1028000080BD00BF10E000E080B582B000AF78600E
:102810007868FFF72DFF00BF0837BD4680BD80B543
:1028200086B000AF0346B9607A60FB7300237B611A
:10283000FFF742FF78617A68B9687869FFF790FF1F
:10284000024697F90F3011461846FFF75FFF00BFA9
:102850001837BD4680BD80B582B000AF0346FB711E
:1028600097F907301846FFF735FF00BF0837BD4618
:1028700080BD80B582B000AF78607868FFF7A2FFB6
:10288000034618460837BD4680BD80B485B000AF0A
:1028900078600023FB737B6893F82130DBB2022B56
:1028A00008D07B6804229A637B68002283F820208A
:1028B000012320E07B681B681A687B681B6822F094
:1028C0000E021A607B681B681A687B681B6822F01E
:1028D00001021A607B681A6C7B68DB6B012101FACC
:1028E00002F25A607B68012283F821207B68002273
:1028F00083F82020FB7B18461437BD4680BC704708
:1029000080B584B000AF78600023FB737B6893F8D8
:102910002130DBB2022B05D07B6804229A630123AD
:10292000FB7351E07B681B681A687B681B6822F0A8
:102930000E021A607B681B681A687B681B6822F0AD
:1029400001021A607B681B68224A934229D07B6887
:102950001B68214A934222D07B681B681F4A93421E
:102960001AD07B681B681E4A934212D07B681B6892
:102970001C4A93420AD07B681B681B4A934202D1CF
:102980004FF480130EE04FF080730BE04FF4803370
:1029900008E04FF4805305E04FF4807302E0102309
:1029A00000E00123114A53607B68012283F8212053
:1029B0007B68002283F820207B685B6B002B03D0B0
:1029C0007B685B6B78689847FB7B18461037BD4681
:1029D00080BD00BF080002401C00024030000240E1
:1029E00044000240580002406C00024000000240D7
:1029F00080B48BB000AF7860396000237B62002325
:102A00003B6269E101227B6A02FA03F3FB613B68E6
:102A10001B68FA691340BB61BA69FB699A4240F0CE
:102A200058813B685B689A4A93425ED0984A9342C9
:102A300075D8984A934258D0964A93426FD8964A8E
:102A4000934252D0944A934269D8944A93424CD0CC
:102A5000924A934263D8924A934246D0904A934214
:102A60005DD8122B2AD8122B59D801A252F823F084
:102A7000EB2A0008C52A0008D72A0008192B0008ED
:102A80001F2B00081F2B00081F2B00081F2B0008FE
:102A90001F2B00081F2B00081F2B00081F2B0008EE
:102AA0001F2B00081F2B00081F2B00081F2B0008DE
:102AB0001F2B0008CD2A0008E12A0008794A93421A
:102AC00013D02CE03B68DB683B6229E03B68DB68A5
:102AD00004333B6224E03B68DB6808333B621FE061
:102AE0003B68DB680C333B621AE03B689B68002B59
:102AF00002D104233B6213E03B689B68012B05D1A4
:102B000008233B627B68FA691A6109E008233B628B
:102B10007B68FA695A6103E000233B6200E000BF72
:102B2000BB69FF2B01D87B6801E07B6804337B61C4
:102B3000BB69FF2B02D87B6A9B0002E07B6A083BE3
:102B40009B003B617B691A680F213B6901FA03F323
:102B5000DB431A40396A3B6901FA03F31A437B6984
:102B60001A603B685B6803F08053002B00F0B18073
:102B70004D4B9B694C4A43F0010393614A4B9B695F
:102B800003F00103BB60BB68484A7B6A9B080233C1
:102B900052F82330FB607B6A03F003039B000F2293
:102BA00002FA03F3DB43FA681340FB607B68404A98
:102BB000934213D07B683F4A93420DD07B683E4AD4
:102BC000934207D07B683D4A934201D1032306E03C
:102BD000042304E0022302E0012300E000237A6AD8
:102BE00002F0030292009340FA681343FB602F49FE
:102BF0007B6A9B080233FA6841F823203B685B68D4
:102C000003F48013002B06D02D4B9A682C49BB6926
:102C100013438B6006E02A4B9A68BB69DB43284963
:102C200013408B603B685B6803F40013002B06D0F5
:102C3000234BDA682249BB691343CB6006E0204B83
:102C4000DA68BB69DB431E491340CB603B685B68B5
:102C500003F40033002B06D0194B5A681849BB699E
:102C600013434B6006E0164B5A68BB69DB431449BB
:102C700013404B603B685B6803F48033002B21D02A
:102C80000F4B1A680E49BB6913430B6021E000BF6C
:102C9000000032100000311000002210000021104E
:102CA000000012100000111000100240000001404E
:102CB00000080140000C01400010014000140140D8
:102CC000000401400B4B1A68BB69DB430949134000
:102CD0000B607B6A01337B623B681A687B6A22FA6D
:102CE00003F3002B7FF48EAE00BF00BF2C37BD4630
:102CF00080BC70470004014080B485B000AF7860AC
:102D00000B467B807B689A687B881340002B02D03F
:102D10000123FB7301E00023FB73FB7B1846143790
:102D2000BD4680BC7047000080B584B000AF7860BD
:102D30007B68002B01D101232BE17B6893F83D30A8
:102D4000DBB2002B06D17B68002283F83C20786838
:102D5000FFF7EAF97B68242283F83D207B681B6833
:102D60001A687B681B6822F001021A607B681B6886
:102D70001A687B681B6842F400421A607B681B6813
:102D80001A687B681B6822F400421A6002F0AAF8F5
:102D9000F8607B685B68814A934207D8FB68804A89
:102DA000934294BF01230023DBB206E0FB687D4A17
:102DB000934294BF01230023DBB2002B01D00123F7
:102DC000E7E0FB68784AA2FB03239B0CBB607B68AF
:102DD0001B685B6823F03F017B681B68BA680A4385
:102DE0005A607B681B681B6A23F03F017B685B6845
:102DF0006A4A934202D8BB68013309E0BB684FF4CA
:102E0000967202FB03F3694AA2FB03239B09013379
:102E10007A6812680B4313627B681B68DB6923F4D2
:102E20004F4222F0FF027B685B685C498B4219D8F5
:102E3000FB68591E7B685B685B00B1FBF3F3591CB0
:102E400040F6FC730B40002B0AD0FB68591E7B68D0
:102E50005B685B00B1FBF3F30133C3F30B0351E099
:102E600004234FE07B689B68002B11D1FB68581E40
:102E70007B6859680B465B000B44B0FBF3F30133EE
:102E8000C3F30B03002B0CBF01230023DBB212E0C2
:102E9000FB68581E7B6859680B469B000B449900E1
:102EA0000B44B0FBF3F30133C3F30B03002B0CBF54
:102EB00001230023DBB2002B01D0012322E07B6839
:102EC0009B68002B0ED1FB68581E7B6859680B4627
:102ED0005B000B44B0FBF3F30133C3F30B0343F488
:102EE00000430FE0FB68581E7B6859680B469B0047
:102EF0000B4499000B44B0FBF3F30133C3F30B0312
:102F000043F44043796809681343CB617B681B68CD
:102F10001B6823F0C0017B68DA697B681B6A1A436F
:102F20007B681B680A431A607B681B689B6823F4F4
:102F3000034323F0FF037A6811697A68D26811436A
:102F40007A6812680B4393607B681B68DB6823F028
:102F5000FF017B685A697B689B691A437B681B6821
:102F60000A43DA607B681B681A687B681B6842F05A
:102F700001021A607B6800221A647B68202283F8B1
:102F80003D207B6800221A637B68002283F83E2084
:102F9000002318461037BD4680BD00BFA086010043
:102FA0007F841E00FF083D0083DE1B43D34D62106B
:102FB00080B588B002AFF8607A601A460B467B8114
:102FC00013463B81FFF726FB7861FB6893F83D30A1
:102FD000DBB2202B40F0E0807B69009319230122B3
:102FE0007049F86801F07EF90346002B01D00223F6
:102FF000D3E0FB6893F83C30012B01D10223CCE0F5
:10300000FB68012283F83C20FB681B681B6803F007
:103010000103012B07D0FB681B681A68FB681B685B
:1030200042F001021A60FB681B681A68FB681B68A3
:1030300022F400621A60FB68212283F83D20FB68BD
:10304000102283F83E20FB6800221A64FB687A682D
:103050005A62FB683A895A85FB685B8D9AB2FB68B5
:103060001A85FB68504ADA6279897B693A6AF8689E
:1030700000F06AFE0346002B01D001238DE00023FF
:103080003B61FB681B685B693B61FB681B689B6974
:103090003B613B6966E07A69396AF86801F03CFA9D
:1030A0000346002B0DD0FB681B6C042B07D1FB687B
:1030B0001B681A68FB681B6842F400721A600123DF
:1030C0006BE0FB685B6A1A78FB681B681A61FB6837
:1030D0005B6A5A1CFB685A62FB685B8D9BB2013BC2
:1030E0009AB2FB685A85FB681B8D013B9AB2FB685C
:1030F0001A85FB681B685B6903F00403042B1BD172
:10310000FB681B8D002B17D0FB685B6A1A78FB6885
:103110001B681A61FB685B6A5A1CFB685A62FB6891
:103120005B8D9BB2013B9AB2FB685A85FB681B8D95
:10313000013B9AB2FB681A857A69396AF86801F02E
:1031400033FA0346002B0DD0FB681B6C042B07D110
:10315000FB681B681A68FB681B6842F400721A60FF
:1031600001231AE0FB681B8D002B94D1FB681B68C0
:103170001A68FB681B6842F400721A60FB68202220
:1031800083F83D20FB68002283F83E20FB68002284
:1031900083F83C20002300E0022318461837BD4680
:1031A00080BD00BF020010000000FFFF80B58CB0A2
:1031B00002AFF8607A601A460B467B8113463B816A
:1031C00000233B62FFF726FA7862FB6893F83D30F4
:1031D000DBB2202B40F04B827B6A00931923012243
:1031E0007F49F86801F07EF80346002B01D00223E6
:1031F0003EE2FB6893F83C30012B01D1022337E219
:10320000FB68012283F83C20FB681B681B6803F005
:103210000103012B07D0FB681B681A68FB681B6859
:1032200042F001021A60FB681B681A68FB681B68A1
:1032300022F400621A60FB68222283F83D20FB68BA
:10324000102283F83E20FB6800221A64FB687A682B
:103250005A62FB683A895A85FB685B8D9AB2FB68B3
:103260001A85FB685F4ADA6279897B6A3A6BF8688B
:1032700000F0ECFD0346002B01D00123F8E1FB68D0
:103280001B8D002B13D10023FB61FB681B685B695E
:10329000FB61FB681B689B69FB61FB69FB681B6842
:1032A0001A68FB681B6842F400721A60CCE1FB6884
:1032B0001B8D012B1ED1FB681B681A68FB681B68FD
:1032C00022F480621A6072B600BF0023BB61FB6803
:1032D0001B685B69BB61FB681B689B69BB61BB6961
:1032E000FB681B681A68FB681B6842F400721A606E
:1032F00062B635E0FB681B8D022B1ED1FB681B6894
:103300001A68FB681B6842F400621A6072B600BF5C
:1033100000237B61FB681B685B697B61FB681B6842
:103320009B697B617B69FB681B681A68FB681B688B
:1033300022F480621A6062B612E0FB681B681A68A9
:10334000FB681B6842F480621A6000233B61FB68E3
:103350001B685B693B61FB681B689B693B613B6960
:1033600072E1FB681B8D032B00F21F81FB681B8D34
:10337000012B23D17A6A396BF86801F05DF90346B5
:10338000002B01D0012373E1FB681B681A69FB68FD
:103390005B6AD2B21A70FB685B6A5A1CFB685A629D
:1033A000FB681B8D013B9AB2FB681A85FB685B8D3D
:1033B0009BB2013B9AB2FB685A8545E1FB681B8DC5
:1033C000022B52D17B6A00933B6B00220649F868BE
:1033D00000F088FF0346002B08D0012348E100BF1E
:1033E000020010000000FFFF0400010072B600BFE1
:1033F000FB681B681A68FB681B6842F400721A605D
:10340000FB681B681A69FB685B6AD2B21A70FB68BA
:103410005B6A5A1CFB685A62FB681B8D013B9AB2BF
:10342000FB681A85FB685B8D9BB2013B9AB2FB6817
:103430005A8562B600BFFB681B681A69FB685B6A45
:10344000D2B21A70FB685B6A5A1CFB685A62FB684E
:103450001B8D013B9AB2FB681A85FB685B8D9BB2A2
:10346000013B9AB2FB685A85EEE07B6A00933B6BA6
:1034700000228149F86800F035FF0346002B01D097
:103480000123F5E0FB681B681A68FB681B6822F4DF
:1034900080621A6072B600BFFB681B681A69FB681D
:1034A0005B6AD2B21A70FB685B6A5A1CFB685A628C
:1034B000FB681B8D013B9AB2FB681A85FB685B8D2C
:1034C0009BB2013B9AB2FB685A856C4B1B68DB08C8
:1034D0006B4AA2FB03231A0A13469B001344DA002B
:1034E000D31A3B623B6A013B3B623B6A002B18D11B
:1034F000FB6800221A63FB68202283F83D20FB68EA
:10350000002283F83E20FB681B6C43F02002FB681E
:103510001A6462B600BFFB68002283F83C200123D6
:10352000A6E0FB681B685B6903F00403042BD9D198
:10353000FB681B681A68FB681B6842F400721A601B
:10354000FB681B681A69FB685B6AD2B21A70FB6879
:103550005B6A5A1CFB685A62FB681B8D013B9AB27E
:10356000FB681A85FB685B8D9BB2013B9AB2FB68D6
:103570005A8562B600BFFB681B681A69FB685B6A04
:10358000D2B21A70FB685B6A5A1CFB685A62FB680D
:103590001B8D013B9AB2FB681A85FB685B8D9BB261
:1035A000013B9AB2FB685A854EE07A6A396BF8683B
:1035B00001F042F80346002B01D0012358E0FB68DC
:1035C0001B681A69FB685B6AD2B21A70FB685B6A97
:1035D0005A1CFB685A62FB681B8D013B9AB2FB6860
:1035E0001A85FB685B8D9BB2013B9AB2FB685A85DA
:1035F000FB681B685B6903F00403042B24D1FB68A0
:103600001B8D032B07D1FB681B681A68FB681B68BE
:1036100022F480621A60FB681B681A69FB685B6AA7
:10362000D2B21A70FB685B6A5A1CFB685A62FB686C
:103630001B8D013B9AB2FB681A85FB685B8D9BB2C0
:10364000013B9AB2FB685A85FB681B8D002B7FF407
:1036500088AEFB68202283F83D20FB68002283F8B7
:103660003E20FB68002283F83C20002300E0022378
:1036700018462837BD4680BD040001000800002020
:1036800089B5F81480B588B002AFF86008461146D5
:103690001A4603467B810B463B811346FB80FEF7AF
:1036A000B9FF7861FB6893F83D30DBB2202B40F026
:1036B000D9807B690093192301226D49F86800F0D5
:1036C00011FE0346002B01D00223CCE0FB6893F8E7
:1036D0003C30012B01D10223C5E0FB68012283F8B5
:1036E0003C20FB681B681B6803F00103012B07D01B
:1036F000FB681B681A68FB681B6842F001021A60CD
:10370000FB681B681A68FB681B6822F400621A6079
:10371000FB68212283F83D20FB68402283F83E208D
:10372000FB6800221A64FB683A6A5A62FB68BA8C2A
:103730005A85FB685B8D9AB2FB681A85FB684D4A17
:10374000DA62F8883A8979897B690193BB6A0093C8
:103750000346F86800F048FC0346002B52D00123D2
:1037600081E07A69B96AF86800F0D6FE0346002B5A
:103770000DD0FB681B6C042B07D1FB681B681A6813
:10378000FB681B6842F400721A6001236BE0FB685F
:103790005B6A1A78FB681B681A61FB685B6A5A1CD3
:1037A000FB685A62FB681B8D013B9AB2FB681A8565
:1037B000FB685B8D9BB2013B9AB2FB685A85FB6844
:1037C0001B685B6903F00403042B1BD1FB681B8D92
:1037D000002B17D0FB685B6A1A78FB681B681A61BC
:1037E000FB685B6A5A1CFB685A62FB681B8D013BD5
:1037F0009AB2FB681A85FB685B8D9BB2013B9AB25B
:10380000FB685A85FB681B8D002BAAD17A69B96ABF
:10381000F86800F0C9FE0346002B0DD0FB681B6C56
:10382000042B07D1FB681B681A68FB681B6842F40D
:1038300000721A60012316E0FB681B681A68FB68B7
:103840001B6842F400721A60FB68202283F83D2056
:10385000FB68002283F83E20FB68002283F83C20AE
:10386000002300E0022318461837BD4680BD00BF84
:10387000020010000000FFFF80B58CB002AFF860BE
:10388000084611461A4603467B810B463B81134688
:10389000FB8000233B62FEF7BDFE7862FB6893F875
:1038A0003D30DBB2202B40F044827B6A0093192329
:1038B00001228249F86800F015FD0346002B01D073
:1038C000022337E2FB6893F83C30012B01D102233D
:1038D00030E2FB68012283F83C20FB681B681B6810
:1038E00003F00103012B07D0FB681B681A68FB6813
:1038F0001B6842F001021A60FB681B681A68FB68CB
:103900001B6822F400621A60FB68222283F83D20C3
:10391000FB68402283F83E20FB6800221A64FB68A3
:103920003A6B5A62FB68BA8E5A85FB685B8D9AB215
:10393000FB681A85FB68624ADA62F8883A897989F5
:103940007B6A0193BB6B00930346F86800F0E2FBCF
:103950000346002B01D00123ECE1FB681B8D002BFB
:1039600013D10023FB61FB681B685B69FB61FB688B
:103970001B689B69FB61FB69FB681B681A68FB6835
:103980001B6842F400721A60C0E1FB681B8D012BBA
:103990001ED1FB681B681A68FB681B6822F48062F2
:1039A0001A6072B600BF0023BB61FB681B685B69CD
:1039B000BB61FB681B689B69BB61BB69FB681B68DB
:1039C0001A68FB681B6842F400721A6062B635E040
:1039D000FB681B8D022B1ED1FB681B681A68FB68F5
:1039E0001B6842F400621A6072B600BF00237B615C
:1039F000FB681B685B697B61FB681B689B697B617B
:103A00007B69FB681B681A68FB681B6822F480628C
:103A10001A6062B612E0FB681B681A68FB681B68D4
:103A200042F480621A6000233B61FB681B685B699B
:103A30003B61FB681B689B693B613B6966E1FB6816
:103A40001B8D032B00F21F81FB681B8D012B23D1E3
:103A50007A6AB96BF86800F0EFFD0346002B01D0DD
:103A6000012367E1FB681B681A69FB685B6AD2B2D5
:103A70001A70FB685B6A5A1CFB685A62FB681B8DF4
:103A8000013B9AB2FB681A85FB685B8D9BB2013BD8
:103A90009AB2FB685A8539E1FB681B8D022B52D123
:103AA0007B6A0093BB6B00220649F86800F01AFCA1
:103AB0000346002B08D001233CE100BF02001000A8
:103AC0000000FFFF0400010072B600BFFB681B6826
:103AD0001A68FB681B6842F400721A60FB681B6876
:103AE0001A69FB685B6AD2B21A70FB685B6A5A1C7F
:103AF000FB685A62FB681B8D013B9AB2FB681A8512
:103B0000FB685B8D9BB2013B9AB2FB685A8562B63B
:103B100000BFFB681B681A69FB685B6AD2B21A7047
:103B2000FB685B6A5A1CFB685A62FB681B8D013B91
:103B30009AB2FB681A85FB685B8D9BB2013B9AB217
:103B4000FB685A85E2E07B6A0093BB6B00227B49ED
:103B5000F86800F0C7FB0346002B01D00123E9E021
:103B6000FB681B681A68FB681B6822F480621A6095
:103B700072B600BFFB681B681A69FB685B6AD2B249
:103B80001A70FB685B6A5A1CFB685A62FB681B8DE3
:103B9000013B9AB2FB681A85FB685B8D9BB2013BC7
:103BA0009AB2FB685A85664B1B68DB08654AA2FB24
:103BB00003231A0A13469B001344DA00D31A3B620C
:103BC0003B6A013B3B623B6A002B18D1FB68002239
:103BD0001A63FB68202283F83D20FB68002283F8EB
:103BE0003E20FB681B6C43F02002FB681A6462B63F
:103BF00000BFFB68002283F83C2001239AE0FB68A9
:103C00001B685B6903F00403042BD9D1FB681B68B4
:103C10001A68FB681B6842F400721A60FB681B6834
:103C20001A69FB685B6AD2B21A70FB685B6A5A1C3D
:103C3000FB685A62FB681B8D013B9AB2FB681A85D0
:103C4000FB685B8D9BB2013B9AB2FB685A8562B6FA
:103C500000BFFB681B681A69FB685B6AD2B21A7006
:103C6000FB685B6A5A1CFB685A62FB681B8D013B50
:103C70009AB2FB681A85FB685B8D9BB2013B9AB2D6
:103C8000FB685A8542E07A6AB96BF86800F0D4FCA8
:103C90000346002B01D001234CE0FB681B681A6926
:103CA000FB685B6AD2B21A70FB685B6A5A1CFB68DD
:103CB0005A62FB681B8D013B9AB2FB681A85FB6850
:103CC0005B8D9BB2013B9AB2FB685A85FB681B680F
:103CD0005B6903F00403042B18D1FB681B681A69A5
:103CE000FB685B6AD2B21A70FB685B6A5A1CFB689D
:103CF0005A62FB681B8D013B9AB2FB681A85FB6810
:103D00005B8D9BB2013B9AB2FB685A85FB681B8DA9
:103D1000002B7FF494AEFB68202283F83D20FB68E3
:103D2000002283F83E20FB68002283F83C20002319
:103D300000E0022318462837BD4680BD040001007C
:103D40000800002089B5F81480B588B002AFF8608B
:103D50007A603B600B467B81FB68DB6A7B617B6939
:103D6000082B06D07B69012B03D07B6913F5803FBC
:103D700008D1FB681B681A68FB681B6842F48072F4
:103D80001A600BE0FB681B6B122B07D1FB681B68EA
:103D90001A68FB681B6842F480721A603B680093E3
:103DA0007B6800224FF00111F86800F09BFA03468F
:103DB000002B0DD0FB681B681B6803F48073B3F500
:103DC000807F03D1FB684FF400721A64032335E04F
:103DD000FB681B69B3F5804F08D17B89DBB21A46BB
:103DE000FB681B6802F0FE021A611BE07B89DB1195
:103DF000DBB203F00603DBB263F00F03DAB2FB6859
:103E00001B681A613B687A680E49F86800F0E4FAAA
:103E10000346002B01D0012310E07B89DAB2FB6856
:103E20001B681A613B687A680749F86800F0D4FAA1
:103E30000346002B01D0012300E000231846183769
:103E4000BD4680BD080001000200010080B588B0B9
:103E500002AFF8607A603B600B467B81FB68DB6AEF
:103E60007B61FB681B681A68FB681B6842F4806210
:103E70001A607B69082B06D07B69012B03D07B6914
:103E800013F5803F08D1FB681B681A68FB681B6844
:103E900042F480721A600BE0FB681B6B112B07D198
:103EA000FB681B681A68FB681B6842F480721A6022
:103EB0003B6800937B6800224FF00111F86800F026
:103EC00011FA0346002B0DD0FB681B681B6803F436
:103ED0008073B3F5807F03D1FB684FF400721A64DE
:103EE000032379E0FB681B69B3F5804F08D17B8918
:103EF000DBB243F00103DAB2FB681B681A615FE0D2
:103F00007B89DB11DBB203F00603DBB263F00F0346
:103F1000DAB2FB681B681A613B687A683049F86856
:103F200000F05AFA0346002B01D0012354E07B89AC
:103F3000DAB2FB681B681A613B687A682949F8683D
:103F400000F04AFA0346002B01D0012344E000238D
:103F50003B61FB681B685B693B61FB681B689B6995
:103F60003B613B69FB681B681A68FB681B6842F48D
:103F700080721A603B6800937B6800224FF0011149
:103F8000F86800F0AFF90346002B0DD0FB681B6802
:103F90001B6803F48073B3F5807F03D1FB684FF493
:103FA00000721A64032317E07B89DB11DBB203F094
:103FB0000603DBB263F00E03DAB2FB681B681A611A
:103FC0003B687A680749F86800F006FA0346002B58
:103FD00001D0012300E0002318461837BD4680BDFC
:103FE000080001000200010080B588B002AFF8604F
:103FF000084611461A4603467B810B463B81134611
:10400000FB80FB681B681A68FB681B6842F48072BF
:104010001A607B6A00933B6A00224FF00111F86836
:1040200000F060F90346002B0DD0FB681B681B688D
:1040300003F48073B3F5807F03D1FB684FF4007203
:104040001A6403235FE07B89DBB21A46FB681B68B6
:1040500002F0FE021A617B6A3A6A2D49F86800F0A4
:10406000BBF90346002B01D001234CE000237B6108
:10407000FB681B685B697B61FB681B689B697B61F4
:104080007B697A6A396AF86800F046FA0346002BC1
:104090000DD0FB681B6C042B07D1FB681B681A68EA
:1040A000FB681B6842F400721A6001232BE0FB8856
:1040B000012B05D13B89DAB2FB681B681A6121E04C
:1040C0003B891B0A9BB2DAB2FB681B681A617A6AE9
:1040D000396AF86800F020FA0346002B0DD0FB681F
:1040E0001B6C042B07D1FB681B681A68FB681B68F4
:1040F00042F400721A60012305E03B89DAB2FB68E2
:104100001B681A61002318461837BD4680BD00BFE2
:104110000200010080B588B002AFF8600846114681
:104120001A4603467B810B463B811346FB80FB68A6
:104130001B681A68FB681B6842F480621A60FB689F
:104140001B681A68FB681B6842F480721A607B6AFD
:1041500000933B6A00224FF00111F86800F0C2F8AA
:104160000346002B0DD0FB681B681B6803F48073AB
:10417000B3F5807F03D1FB684FF400721A64032308
:10418000AAE07B89DBB21A46FB681B6802F0FE02DC
:104190001A617B6A3A6A5249F86800F01DF90346D1
:1041A000002B01D0012397E000237B61FB681B6893
:1041B0005B697B61FB681B689B697B617B697A6AD1
:1041C000396AF86800F0A8F90346002B0DD0FB68A7
:1041D0001B6C042B07D1FB681B681A68FB681B6803
:1041E00042F400721A60012376E0FB88012B05D1AE
:1041F0003B89DAB2FB681B681A6121E03B891B0A24
:104200009BB2DAB2FB681B681A617A6A396AF8688D
:1042100000F082F90346002B0DD0FB681B6C042BC9
:1042200007D1FB681B681A68FB681B6842F40072C0
:104230001A60012350E03B89DAB2FB681B681A61FF
:104240007A6A396AF86800F067F90346002B0DD0E6
:10425000FB681B6C042B07D1FB681B681A68FB68A2
:104260001B6842F400721A60012335E0FB681B688A
:104270001A68FB681B6842F480721A607B6A0093BC
:104280003B6A00224FF00111F86800F02BF803465A
:10429000002B0DD0FB681B681B6803F48073B3F51B
:1042A000807F03D1FB684FF400721A64032313E08C
:1042B0007B89DBB243F00103DAB2FB681B681A6149
:1042C0007B6A3A6A0649F86800F086F80346002BD4
:1042D00001D0012300E0002318461837BD4680BDF9
:1042E0000200010080B584B000AFF860B9603B60A7
:1042F0001346FB7148E03B68B3F1FF3F44D0FEF743
:1043000089F90246BB69D31A3A689A4202D33B68DC
:10431000002B39D1BB681B0CDBB2012B0DD1FB6824
:104320001B685B69DA43BB6813409BB2002B0CBF70
:1043300001230023DBB21A460CE0FB681B689B6973
:10434000DA43BB6813409BB2002B0CBF0123002350
:10435000DBB21A46FB799A4216D1FB6800221A6337
:10436000FB68202283F83D20FB68002283F83E2072
:10437000FB681B6C43F02002FB681A64FB68002298
:1043800083F83C20012323E0BB681B0CDBB2012B2C
:104390000DD1FB681B685B69DA43BB6813409BB2B5
:1043A000002B0CBF01230023DBB21A460CE0FB6894
:1043B0001B689B69DA43BB6813409BB2002B0CBFA0
:1043C00001230023DBB21A46FB799A4293D00023E3
:1043D00018461037BD4680BD80B584B000AFF86088
:1043E000B9607A603B6071E0FB681B685B6903F44D
:1043F0008063B3F5806F23D1FB681B681A68FB6884
:104400001B6842F400721A60FB681B686FF48062DC
:104410005A61FB6800221A63FB68202283F83D2062
:10442000FB68002283F83E20FB681B6C43F004020B
:10443000FB681A64FB68002283F83C20012367E0D4
:104440007B68B3F1FF3F41D0FEF7E4F802463B68DA
:10445000D31A7A689A4202D37B68002B36D1BB68A4
:104460001B0CDBB2012B0CD1FB681B685B69DA43C8
:10447000BB6813409BB2002B14BF01230023DBB2A7
:104480000BE0FB681B689B69DA43BB6813409BB277
:10449000002B14BF01230023DBB2002B16D0FB68D6
:1044A00000221A63FB68202283F83D20FB6800226B
:1044B00083F83E20FB681B6C43F02002FB681A6403
:1044C000FB68002283F83C20012321E0BB681B0C21
:1044D000DBB2012B0CD1FB681B685B69DA43BB685C
:1044E00013409BB2002B14BF01230023DBB20BE06F
:1044F000FB681B689B69DA43BB6813409BB2002BC7
:1045000014BF01230023DBB2002B7FF46DAF002327
:1045100018461037BD4680BD80B584B000AFF86046
:10452000B9607A6034E0F86800F0E3F80346002BE5
:1045300001D0012334E0BB68B3F1FF3F28D0FEF780
:1045400069F802467B68D31ABA689A4202D3BB68FC
:10455000002B1DD1FB681B685B6903F08003802B77
:1045600016D0FB6800221A63FB68202283F83D20E6
:10457000FB68002283F83E20FB681B6C43F020029E
:10458000FB681A64FB68002283F83C20012307E0E3
:10459000FB681B685B6903F08003802BC3D1002399
:1045A00018461037BD4680BD80B584B000AFF860B6
:1045B000B9607A6034E0F86800F09BF80346002B9D
:1045C00001D0012334E0BB68B3F1FF3F28D0FEF7F0
:1045D00021F802467B68D31ABA689A4202D3BB68B4
:1045E000002B1DD1FB681B685B6903F00403042BDF
:1045F00016D0FB6800221A63FB68202283F83D2056
:10460000FB68002283F83E20FB681B6C43F020020D
:10461000FB681A64FB68002283F83C20012307E052
:10462000FB681B685B6903F00403042BC3D1002300
:1046300018461037BD4680BD80B584B000AFF86025
:10464000B9607A6049E0FB681B685B6903F010039E
:10465000102B19D1FB681B686FF010025A61FB68C0
:1046600000221A63FB68202283F83D20FB680022A9
:1046700083F83E20FB681A6CFB681A64FB68002212
:1046800083F83C20012330E0FDF7C4FF02467B683D
:10469000D31ABA689A4202D3BB68002B1DD1FB68BB
:1046A0001B685B6903F04003402B16D0FB680022B7
:1046B0001A63FB68202283F83D20FB68002283F800
:1046C0003E20FB681B6C43F02002FB681A64FB6809
:1046D000002283F83C20012307E0FB681B685B692C
:1046E00003F04003402BAED1002318461037BD46DF
:1046F00080BD80B483B000AF78607B681B685B6965
:1047000003F48063B3F5806F1BD17B681B686FF483
:1047100080625A617B6800221A637B68202283F8DA
:104720003D207B68002283F83E207B681B6C43F0B1
:1047300004027B681A647B68002283F83C20012312
:1047400000E0002318460C37BD4680BC70470000CF
:1047500080B586B000AF78607B68002B01D1012363
:1047600072E27B681B6803F00103002B00F0878076
:10477000924B5B6803F00C03042B0CD08F4B5B68EF
:1047800003F00C03082B12D18C4B5B6803F48033CD
:10479000B3F5803F0BD1894B1B6803F40033002B2A
:1047A0006CD07B685B68002B68D101234CE27B688E
:1047B0005B68B3F5803F06D1804B1B687F4A43F4AA
:1047C000803313602EE07B685B68002B0CD17B4B41
:1047D0001B687A4A23F480331360784B1B68774A4E
:1047E00023F4802313601DE07B685B68B3F5A02F82
:1047F0000CD1724B1B68714A43F4802313606F4BDA
:104800001B686E4A43F4803313600BE06B4B1B68EC
:104810006A4A23F480331360684B1B68674A23F4A9
:10482000802313607B685B68002B13D0FDF7F2FEDA
:10483000386108E0FDF7EEFE02463B69D31A642BAF
:1048400001D9032300E25D4B1B6803F40033002B06
:10485000F0D014E0FDF7DEFE386108E0FDF7DAFE87
:1048600002463B69D31A642B01D90323ECE1534B75
:104870001B6803F40033002BF0D100E000BF7B681D
:104880001B6803F00203002B63D04C4B5B6803F002
:104890000C03002B0BD0494B5B6803F00C03082B77
:1048A0001CD1464B5B6803F48033002B16D1434B7D
:1048B0001B6803F00203002B05D07B681B69012BEA
:1048C00001D00123C0E13D4B1B6823F0F8027B6857
:1048D0005B69DB00394913430B603AE07B681B6975
:1048E000002B20D0364B01221A60FDF793FE386171
:1048F00008E0FDF78FFE02463B69D31A022B01D96F
:104900000323A1E12D4B1B6803F00203002BF0D021
:104910002A4B1B6823F0F8027B685B69DB002749A0
:1049200013430B6015E0264B00221A60FDF772FE60
:10493000386108E0FDF76EFE02463B69D31A022B90
:1049400001D9032380E11D4B1B6803F00203002BF8
:10495000F0D17B681B6803F00803002B3AD07B681A
:104960009B69002B19D0174B01221A60FDF752FEEC
:10497000386108E0FDF74EFE02463B69D31A022B70
:1049800001D9032360E10D4B5B6A03F00203002BA6
:10499000F0D0012000F0CEFA1CE00A4B00221A6091
:1049A000FDF738FE38610FE0FDF734FE02463B6943
:1049B000D31A022B08D9032346E100BF001002409E
:1049C0000000424280044242924B5B6A03F00203C1
:1049D000002BE9D17B681B6803F00403002B00F077
:1049E000A6800023FB758B4BDB6903F08053002B03
:1049F0000DD1884BDB69874A43F08053D361854BE7
:104A0000DB6903F08053BB60BB680123FB75824BFD
:104A10001B6803F48073002B18D17F4B1B687E4A00
:104A200043F480731360FDF7F5FD386108E0FDF78E
:104A3000F1FD02463B69D31A642B01D9032303E13C
:104A4000754B1B6803F48073002BF0D07B68DB6828
:104A5000012B06D16F4B1B6A6E4A43F001031362B0
:104A60002DE07B68DB68002B0CD16A4B1B6A694A1E
:104A700023F001031362674B1B6A664A23F00403A9
:104A800013621CE07B68DB68052B0CD1614B1B6A51
:104A9000604A43F0040313625E4B1B6A5D4A43F0B5
:104AA000010313620BE05B4B1B6A5A4A23F00103BC
:104AB0001362584B1B6A574A23F0040313627B6846
:104AC000DB68002B15D0FDF7A5FD38610AE0FDF786
:104AD000A1FD02463B69D31A41F28832934201D9C3
:104AE0000323B1E04B4B1B6A03F00203002BEED013
:104AF00014E0FDF78FFD38610AE0FDF78BFD0246FB
:104B00003B69D31A41F28832934201D903239BE0D7
:104B1000404B1B6A03F00203002BEED1FB7D012BFF
:104B200005D13C4BDB693B4A23F08053D3617B6862
:104B3000DB69002B00F08780364B5B6803F00C03C9
:104B4000082B61D07B68DB69022B46D1334B0022F6
:104B50001A60FDF75FFD386108E0FDF75BFD024676
:104B60003B69D31A022B01D903236DE0294B1B6843
:104B700003F00073002BF0D17B681B6AB3F5803F14
:104B800008D1244B5B6823F400327B689B68214981
:104B900013434B601F4B5B6823F474127B68196AE4
:104BA0007B685B6A0B431B4913434B601B4B012221
:104BB0001A60FDF72FFD386108E0FDF72BFD024676
:104BC0003B69D31A022B01D903233DE0114B1B682B
:104BD00003F00073002BF0D035E0104B00221A6078
:104BE000FDF718FD386108E0FDF714FD02463B694A
:104BF000D31A022B01D9032326E0064B1B6803F0CE
:104C00000073002BF0D11EE07B68DB69012B07D11C
:104C1000012319E000100240007000406000424291
:104C20000B4B5B68FB60FB6803F480327B681B6A9C
:104C30009A4206D1FB6803F470127B685B6A9A4261
:104C400001D0012300E0002318461837BD4680BD7F
:104C50000010024080B584B000AF786039607B6896
:104C6000002B01D10123D0E06A4B1B6803F007033E
:104C70003A689A4210D9674B1B6823F007026549CE
:104C80003B6813430B60634B1B6803F007033A68F0
:104C90009A4201D00123B8E07B681B6803F002034D
:104CA000002B20D07B681B6803F00403002B05D089
:104CB000594B5B68584A43F4E06353607B681B6858
:104CC00003F00803002B05D0534B5B68524A43F4B2
:104CD00060535360504B5B6823F0F0027B689B6825
:104CE0004D4913434B607B681B6803F00103002BA5
:104CF00040D07B685B68012B07D1474B1B6803F4EE
:104D00000033002B15D101237FE07B685B68022B09
:104D100007D1414B1B6803F00073002B09D101231D
:104D200073E03D4B1B6803F00203002B01D101230C
:104D30006BE0394B5B6823F003027B685B683649A4
:104D400013434B60FDF766FCF8600AE0FDF762FC78
:104D50000246FB68D31A41F28832934201D90323F9
:104D600053E02D4B5B6803F00C027B685B689B0093
:104D70009A42EBD1274B1B6803F007033A689A422B
:104D800010D2244B1B6823F0070222493B681343CF
:104D90000B60204B1B6803F007033A689A4201D06E
:104DA000012332E07B681B6803F00403002B08D06A
:104DB000194B5B6823F4E0627B68DB681649134398
:104DC0004B607B681B6803F00803002B09D0124B73
:104DD0005B6823F460527B681B69DB000E49134358
:104DE0004B6000F021F802460B4B5B681B0903F097
:104DF0000F030A49CB5C22FA03F3094A1360094BFB
:104E00001B681846FDF7C4FB002318461037BD4643
:104E100080BD00BF0020024000100240AC9000089E
:104E2000080000200C00002080B487B000AF0023F1
:104E3000FB600023BB6000237B6100237B600023B9
:104E40003B611E4B5B68FB60FB6803F00C03042BAB
:104E500002D0082B03D027E0194B3B6127E0FB6809
:104E60009B0C03F00F03174AD35C7B60FB6803F4D1
:104E70008033002B10D0114B5B685B0C03F00103F7
:104E8000114AD35CBB607B680D4A03FB02F2BB682E
:104E9000B2FBF3F37B6104E07B680C4A02FB03F393
:104EA0007B617B693B6102E0054B3B6100BF3B6975
:104EB00018461C37BD4680BC704700BF001002403A
:104EC00000127A00C4900008D490000800093D0048
:104ED00080B400AF024B1B681846BD4680BC7047CB
:104EE0000800002080B500AFFFF7F2FF0246054B37
:104EF0005B681B0A03F007030349CB5C22FA03F348
:104F0000184680BD00100240BC90000880B500AF7C
:104F1000FFF7DEFF0246054B5B68DB0A03F0070381
:104F20000349CB5C22FA03F3184680BD001002400F
:104F3000BC90000880B485B000AF78600A4B1B6855
:104F40000A4AA2FB03235B0A7A6802FB03F3FB60B5
:104F500000BFFB685A1EFA60002BF9D100BF00BFEA
:104F60001437BD4680BC704708000020D34D621046
:104F700080B582B000AF78607B68002B01D101233F
:104F800041E07B6893F83D30DBB2002B06D17B68B3
:104F9000002283F83C207868FDF732F97B68022212
:104FA00083F83D207B681A687B68043319461046F5
:104FB00000F040F97B68012283F846207B680122DB
:104FC00083F83E207B68012283F83F207B68012222
:104FD00083F840207B68012283F841207B6801220E
:104FE00083F842207B68012283F843207B680122FA
:104FF00083F844207B68012283F845207B680122E6
:1050000083F83D20002318460837BD4680BD0000C8
:1050100080B485B000AF78607B6893F83D30DBB238
:10502000012B01D0012332E07B68022283F83D206E
:105030007B681B68184A93420ED07B681B68B3F1EB
:10504000804F09D07B681B68144A934204D07B6868
:105050001B68134A934211D17B681B689B6803F05D
:105060000703FB60FB68062B10D07B681B681A687F
:105070007B681B6842F001021A6007E07B681B68CE
:105080001A687B681B6842F001021A600023184608
:105090001437BD4680BC7047002C0140000400401E
:1050A0000008004080B584B000AF7860396000230C
:1050B000FB737B6893F83C30012B01D10223B4E0F1
:1050C0007B68012283F83C207B68022283F83D2024
:1050D0007B681B689B68BB60BB6823F07703BB6081
:1050E000BB6823F47F43BB607B681B68BA689A6027
:1050F0003B681B68B3F5005F3ED0B3F5005F00F27C
:105100008780B3F5805F00F08680B3F5805F7FD83D
:10511000702B1AD0702B7BD8602B50D0602B77D897
:10512000502B3CD0502B73D8402B58D0402B6FD8ED
:10513000302B64D0302B6BD8202B60D0202B67D83D
:10514000002B5CD0102B5AD062E07B6818683B685B
:1051500099683B685A683B68DB6800F044F97B68F3
:105160001B689B68BB60BB6843F07703BB607B68D0
:105170001B68BA689A604FE07B6818683B6899685A
:105180003B685A683B68DB6800F02DF97B681B6858
:105190009A687B681B6842F480429A603CE07B68B6
:1051A00018683B6859683B68DB681A4600F0A4F849
:1051B0007B681B685021184600F0FBF82CE07B68E8
:1051C00018683B6859683B68DB681A4600F0C2F80B
:1051D0007B681B686021184600F0EBF81CE07B68D8
:1051E00018683B6859683B68DB681A4600F084F829
:1051F0007B681B684021184600F0DBF80CE07B68F8
:105200001A683B681B681946104600F0D2F803E0A4
:105210000123FB7300E000BF7B68012283F83D207F
:105220007B68002283F83C20FB7B18461037BD4684
:1052300080BD000080B485B000AF786039607B68C5
:105240001B68FB607B68294A93420BD07B68B3F1F3
:10525000804F07D07B68264A934203D07B68254A5B
:10526000934208D1FB6823F07003FB603B685B68E6
:10527000FA681343FB607B681C4A93420BD07B683F
:10528000B3F1804F07D07B68194A934203D07B6803
:10529000184A934208D1FB6823F44073FB603B68D3
:1052A000DB68FA681343FB60FB6823F080023B680D
:1052B0005B691343FB607B68FA681A603B689A6815
:1052C0007B68DA623B681A687B689A627B68074A87
:1052D000934203D13B681A697B681A637B68012299
:1052E0005A6100BF1437BD4680BC7047002C014096
:1052F000000400400008004080B487B000AFF860B0
:10530000B9607A60FB681B6A7B61FB681B6A23F0EB
:105310000102FB681A62FB689B693B613B6923F0F1
:10532000F0033B617B681B013A6913433B617B6976
:1053300023F00A037B617A69BB6813437B61FB68D6
:105340003A699A61FB687A691A6200BF1C37BD46E8
:1053500080BC704780B487B000AFF860B9607A60F5
:10536000FB681B6A7B61FB681B6A23F01002FB6809
:105370001A62FB689B693B613B6923F470433B61A4
:105380007B681B033A6913433B617B6923F0A003ED
:105390007B61BB681B017A6913437B61FB683A69D7
:1053A0009A61FB687A691A6200BF1C37BD4680BCEF
:1053B000704780B485B000AF786039607B689B68C7
:1053C000FB60FB6823F07003FB603A68FB681343E3
:1053D00043F00703FB607B68FA689A6000BF1437EC
:1053E000BD4680BC704780B487B000AFF860B9603C
:1053F0007A603B60FB689B687B617B6923F47F4339
:105400007B613B681A027B681A43BB6813437A6965
:1054100013437B61FB687A699A6000BF1C37BD4605
:1054200080BC704780B485B000AF786039607B681D
:1054300093F83C30012B01D1022346E07B68012226
:1054400083F83C207B68022283F83D207B681B6840
:105450005B68FB607B681B689B68BB60FB6823F034
:105460007003FB603B681B68FA681343FB607B6852
:105470001B68FA685A607B681B68164A93420ED014
:105480007B681B68B3F1804F09D07B681B68124AA8
:10549000934204D07B681B68104A93420CD1BB68CE
:1054A00023F08003BB603B685B68BA681343BB6052
:1054B0007B681B68BA689A607B68012283F83D208C
:1054C0007B68002283F83C20002318461437BD4631
:1054D00080BC7047002C01400004004000080040E0
:1054E00080B582B000AF78607B68002B01D10123CA
:1054F00042E07B6893F84130DBB2002B06D17B6839
:10550000002283F840207868FCF7BAFE7B682422EA
:1055100083F841207B681B68DA687B681B6822F48B
:105520000052DA60786800F0C5FD7B681B681A6974
:105530007B681B6822F490421A617B681B685A6979
:105540007B681B6822F02A025A617B681B68DA6854
:105550007B681B6842F40052DA607B6800225A6460
:105560007B68202283F841207B68202283F8422038
:105570007B6800225A63002318460837BD4680BD69
:1055800080B58AB002AFF860B9603B601346FB801B
:1055900000237B61FB6893F84130DBB2202B6DD197
:1055A000BB68002B02D0FB88002B01D1012366E0F1
:1055B000FB6800225A64FB68212283F84120FDF732
:1055C00029F87861FB68FA889A84FB68FA88DA849B
:1055D000FB689B68B3F5805F08D1FB681B69002BF3
:1055E00004D10023FB61BB68BB6103E0BB68FB61C6
:1055F0000023BB612AE03B6800937B690022802185
:10560000F86800F014FB0346002B01D0032336E0BA
:10561000FB69002B0BD1BB691B881A46FB681B6812
:10562000C2F308025A60BB690233BB6107E0FB6941
:105630001A78FB681B685A60FB690133FB61FB68E1
:10564000DB8C9BB2013B9AB2FB68DA84FB68DB8C93
:105650009BB2002BCFD13B6800937B690022402195
:10566000F86800F0E4FA0346002B01D0032306E0BB
:10567000FB68202283F84120002300E00223184623
:105680002037BD4680BD80B584B000AFF860B960FA
:105690001346FB80FB6893F84230DBB2202B12D11B
:1056A000BB68002B02D0FB88002B01D101230BE04B
:1056B000FB6800221A63FB881A46B968F86800F094
:1056C00024FB034600E0022318461037BD4680BD88
:1056D00080B5BAB000AF78607B681B681B68C7F8FC
:1056E000E4307B681B68DB68C7F8E0307B681B68C8
:1056F0005B69C7F8DC300023C7F8D8300023C7F84F
:10570000D430D7F8E43003F00F03C7F8D830D7F817
:10571000D830002B0FD1D7F8E43003F02003002B52
:1057200009D0D7F8E03003F02003002B03D07868CD
:1057300000F001FC5BE2D7F8D830002B00F0DE80EF
:10574000D7F8DC3003F00103002B06D1D7F8E030A6
:1057500003F49073002B00F0D180D7F8E43003F00D
:105760000103002B0BD0D7F8E03003F48073002B3B
:1057700005D07B685B6C43F001027B685A64D7F804
:10578000E43003F00403002B0BD0D7F8DC3003F037
:105790000103002B05D07B685B6C43F002027B6841
:1057A0005A64D7F8E43003F00203002B0BD0D7F88B
:1057B000DC3003F00103002B05D07B685B6C43F009
:1057C00004027B685A64D7F8E43003F00803002B26
:1057D00011D0D7F8E03003F02003002B05D1D7F823
:1057E000DC3003F00103002B05D07B685B6C43F0D9
:1057F00008027B685A647B685B6C002B00F0F281C6
:10580000D7F8E43003F02003002B08D0D7F8E030BD
:1058100003F02003002B02D0786800F08CFB7B683B
:105820001B685B6903F04003002B14BF01230023B6
:10583000DBB2C7F8D4307B685B6C03F00803002B45
:1058400003D1D7F8D430002B4FD0786800F096FA07
:105850007B681B685B6903F04003002B41D07B68C9
:105860001B681433C7F89C30D7F89C3053E8003FCE
:10587000C7F89830D7F8983023F04003C7F8D030F5
:105880007B681B681433D7F8D020C7F8A820C7F866
:10589000A430D7F8A410D7F8A82041E80023C7F80F
:1058A000A030D7F8A030002BD9D17B68DB6B002B60
:1058B00013D07B68DB6B7E4A5A637B68DB6B1846D0
:1058C000FDF71EF80346002B16D07B68DB6B5B6B85
:1058D0007A68D26B104698470EE0786800F093F92A
:1058E0000AE0786800F08FF906E0786800F08BF93C
:1058F0007B6800225A6475E100BF73E17B681B6B13
:10590000012B40F04F81D7F8E43003F01003002B57
:1059100000F04881D7F8E03003F01003002B00F0CE
:1059200041810023BB607B681B681B68BB607B6890
:105930001B685B68BB60BB687B681B685B6903F0C6
:105940004003002B00F0B6807B68DB6B1B685B6854
:10595000A7F8BE30B7F8BE30002B00F045817B6859
:105960009B8DB7F8BE209A4280F03E817B68B7F8E5
:10597000BE20DA857B68DB6B9B69202B00F088807A
:105980007B681B680C33C7F88830D7F8883053E839
:10599000003FC7F88430D7F8843023F48073C7F809
:1059A000B8307B681B680C33D7F8B820C7F8942050
:1059B000C7F89030D7F89010D7F8942041E800232A
:1059C000C7F88C30D7F88C30002BD9D17B681B6896
:1059D00014337B677B6F53E8003F3B673B6F23F0DB
:1059E0000103C7F8B4307B681B681433D7F8B420C0
:1059F000C7F88020FB67F96FD7F8802041E80023C3
:105A0000BB67BB6F002BE1D17B681B6814333B661F
:105A10003B6E53E8003FFB65FB6D23F04003C7F886
:105A2000B0307B681B681433D7F8B020FA66BB66C9
:105A3000B96EFA6E41E800237B667B6E002BE3D1E2
:105A40007B68202283F842207B6800221A637B68EF
:105A50001B680C33FB64FB6C53E8003FBB64BB6CFE
:105A600023F01003C7F8AC307B681B680C33D7F801
:105A7000AC20BA657B65796DBA6D41E800233B6562
:105A80003B6D002BE3D17B68DB6B1846FCF7FDFE1A
:105A90007B6802225A637B689A8D7B68DB8D9BB2A0
:105AA000D31A9BB21946786800F0B6F89CE000BFA4
:105AB000415E00087B689A8D7B68DB8D9BB2D31AB0
:105AC000A7F8CE307B68DB8D9BB2002B00F08E8078
:105AD000B7F8CE30002B00F089807B681B680C3350
